:020000040800F2
:10000000C0060020290200088F120008C511000850
:100010008D120008650500083D130008000000006F
:100020000000000000000000000000009312000823
:1000300067050008000000009112000895120008F2
:10004000430200084302000843020008430200087C
:10005000430200084302000843020008430200086C
:10006000430200084302000843020008430200085C
:10007000430200084302000843020008430200084C
:10008000430200084302000843020008430200083C
:10009000430200084302000843020008430200082C
:1000A000430200084302000843020008430200081C
:1000B000430200084302000843020008430200080C
:1000C00043020008430200084302000843020008FC
:1000D00043020008430200084302000843020008EC
:1000E00043020008430200084302000843020008DC
:1000F00043020008430200084302000843020008CC
:1001000043020008430200084302000843020008BB
:1001100043020008430200084302000843020008AB
:10012000430200084302000843020008430200089B
:10013000430200084302000843020008430200088B
:10014000430200084302000843020008430200087B
:10015000430200084302000843020008430200086B
:10016000430200084302000843020008430200085B
:100170004302000843020008430200080000000098
:10018000430200084302000800F002F800F03CF8C7
:100190000AA090E8000C82448344AAF10107DA45E2
:1001A00001D100F031F8AFF2090EBAE80F0013F0F8
:1001B000010F18BFFB1A43F001031847242F00005A
:1001C000442F0000103A24BF78C878C1FAD85207EB
:1001D00024BF30C830C144BF04680C6070470000C1
:1001E0000023002400250026103A28BF78C1FBD840
:1001F000520728BF30C148BF0B6070471FB502F0DF
:100200009AFE1FBD10B510BD00F0E2F81146FFF7D1
:10021000F5FF01F0C1FF00F000F903B4FFF7F2FFB2
:1002200003BC00F003F90000094880470948004773
:10023000FEE7FEE7FEE7FEE7FEE7FEE7FEE7FEE796
:10024000FEE7FEE704480549054A064B70470000F3
:100250002D13000889010008C0000020C0060020FE
:10026000C0020020C002002053EA020C00F06980A6
:100270002DE9F04B4FF00006002B1FBFB3FA83F5BA
:1002800003FA05F424FA05F65E4012BF1643B2FAEB
:1002900082F502FA05F4C5F120051EBF22FA05FC1D
:1002A00044EA0C04203556EA044C4FEA144418BFC3
:1002B000641C4FF000084FF00009904271EB030CF2
:1002C00039D3002919BFB1FA81F701FA07F6B0FA5C
:1002D00080F700FA07F6C7F120071EBF20FA07FCD7
:1002E00046EA0C062037B6FBF4FCA7EB0507103FE7
:1002F00007F01F0BCBF120060CFA0BFB2CFA06F6CD
:1003000044BFB3460026202FA4BF5E464FF0000B2B
:100310005BEA060C08BF4FF0010B19EB0B09ABFBB6
:10032000027C48EB0608C01B06FB02CC0BFB03CC8F
:1003300071EB0C01C1E70B46024641464846BDE859
:10034000F08B13B54FF000004FF00001AFF30080C9
:10035000BDE81C4070474FF0000200B513469446BC
:100360009646203922BFA0E80C50A0E80C50B1F10D
:100370002001BFF4F7AF090728BFA0E80C5048BF21
:100380000CC05DF804EB890028BF40F8042B08BFBF
:10039000704748BF20F8022B11F0804F18BF00F8BB
:1003A000012B704770477047704710B500F008F890
:1003B000006810BD10B5044600F002F8046010BDDE
:1003C000004870476000002000487047600000202F
:1003D0007546FFF7F9FFAE4605006946534620F023
:1003E0000700854618B020B5FFF72CFFBDE8204078
:1003F0004FF000064FF000074FF000084FF0000BE1
:1004000021F00701AC46ACE8C009ACE8C009ACE893
:10041000C009ACE8C0098D46704710B50446AFF37B
:1004200000802046BDE81040FFF7F7BE01491820C4
:10043000ABBEFEE72600020070470000464910B53B
:100440004A6822F440324A604A6843681A434A6064
:1004500001684A6822F480724A6001684A68036948
:1004600042EA03224A6001684A6822F040724A6008
:1004700001684A6883681A434A6001688A6822F4FE
:1004800000628A6001688A68C3681A438A60816A68
:100490006FF07062D14201688A6822F070628A60EF
:1004A00001688A680CD0836A1A438A6001688A6886
:1004B00022F040528A6001688A68C36A1A4301E0E8
:1004C00022F040528A6001688A6822F002028A6043
:1004D00001688A68037E42EA43028A6090F820102D
:1004E000002901684A680FD042F400624A6001683E
:1004F0004A6822F460424A6001684A68174C436ABD
:1005000004EB43331A4301E022F400624A600168BD
:10051000CA6A22F47002CA620168CA6A838B104CEC
:1005200004EB03531A43CA6201688A6822F400721A
:100530008A6001688A6890F8303042EA43228A6013
:1005400001688A6822F480628A6001688A6840696A
:1005500042EA8020886010BD0023014000E0FFFFD8
:100560000000F0FFFEE7704778B50024009490F893
:100570003C20012A19D0012280F83C200A68072378
:100580000568092A13D9EE680A3A02EB4202934041
:100590009E43EE600B788A680A3B03EB43039A4064
:1005A0000368DD682A43DA6010E0022078BD2E6916
:1005B00002EB420293409E432E610B788A6803EB64
:1005C00043039A4003681D692A431A614A681F233E
:1005D000072A13D205686E6B521E02EB820293400B
:1005E0009E436E630B790A885B1E92B203EB830312
:1005F0009A4003685D6B2A435A6327E005680D2A19
:1006000012D22E6BD21F02EB820293409E432E63C6
:100610000B790A88DB1F92B203EB83039A400368CD
:100620001D6B2A431A6311E0EE6A0D3A02EB820257
:1006300093409E43EE620B790A880D3B92B203EB26
:1006400083039A400368DD6A2A43DA62164B056821
:10065000144A9D4206D10D68122D03D1556845F408
:100660008005556005689D4218D10B68102B01D09C
:10067000112B13D1536843F4000353600968102908
:100680000CD10A490A4A0968B1FBF2F101EB810178
:10069000490000E0491E00910029FBD180F83C4050
:1006A000002078BD002301400020014014000020FC
:1006B00040420F000068C06C704770B504004FF0F6
:1006C000000503D0206C002610B107E0012070BDAA
:1006D000204600F01DF8666484F83C60206CC0067B
:1006E00010D4206C20F4885040F002002064204692
:1006F000FFF7A4FE6664206C20F0020040F00100C9
:10070000206400E0012584F83C60284670BD0000AC
:1007100010B586B0044614216846FFF71CFE114947
:10072000206888421CD110480021026842F480727F
:100730000260006800F4807005900B48143802686D
:1007400042F001020260006800F001000590012003
:1007500000900320CDE901016946044800F00CF93E
:1007600006B010BD002001404438024000000240A5
:100770002DE9F041044600680D4681684FF00007FE
:1007800049050BD58068C00508D5206C40F02000D5
:10079000206484F83C700120BDE8F08100F0EAF9A3
:1007A000064613E0681C11D025B100F0E3F9801B68
:1007B000A8420BD920680068800707D4206C40F05D
:1007C0000400206484F83C700320E5E7206800689A
:1007D0008007E7D521686FF012000860206C40F4B4
:1007E000007020642068816811F0405F13D1217E81
:1007F00089B9C16A11F4700F02D0806840050AD42B
:10080000206C20F480702064206CC00403D4206C21
:1008100040F0010020640020BEE7000018B5002170
:10082000009190F83C20012A07D0012280F83C205A
:1008300002689368DB0702D011E0022018BD9368BC
:1008400043F0010393602E4A2E4B1268B2FBF3F281
:1008500002EB420200E0521E0092002AFBD1026825
:100860009368DB0742D0036C40F20164A34343F476
:100870008073036453685B0505D5036C23F4005350
:1008800043F480530364036CDB0404D5436C23F00E
:100890000603436400E0416480F83C101A496FF09D
:1008A0002203136049680068CA06184906D08842C6
:1008B00024D1816811F0405F13D01FE08842F8D046
:1008C000134A904203D1D1F80423D206F1D0114A41
:1008D000904213D1D1F8041301F01F011029E8D37D
:1008E0000CE0816841F08041816007E0016C41F0DB
:1008F00010010164416C41F001014164002018BD08
:100900001400002040420F0000230140002001405D
:10091000002101400022014090F83C1001290CD038
:10092000012180F83C1001688A6822F001028A6087
:1009300001688968C90702D007E002207047016C8E
:1009400021F4885141F001010164002180F83C103C
:100950000846704770B5044600F00CF90546601C67
:1009600002D004480078044400F004F9401BA0427F
:10097000FAD370BD080000202DE9F84FDFF8BCA1C4
:100980000022012503264FF00F090AF1040BAAF1FA
:10099000040E00BF0B6805FA02F42340A34270D195
:1009A0000F7907F00307012F01D0022F16D18768B6
:1009B0004FEA420806FA08FC27EA0C07D1F80CC0F7
:1009C0000CFA08FC4CEA070CC0F808C04768A743BB
:1009D0000C79C4F3001494403C4344600C79E44324
:1009E000A4070AD0C4684FEA420C06FA0CF7BC43CD
:1009F0008F6807FA0CF72743C7600C7904F00304EB
:100A0000022C12D1D40800EB840CDCF820405707EC
:100A1000FF0E09FA07F824EA0804D1F8108008FA52
:100A200007F848EA0408CCF8208004684FEA420C32
:100A300006FA0CF7BC430F7907F0030707FA0CF727
:100A4000274307604C6814F4403F70D03C4C276843
:100A500047F480472760246822F0030704F48044A9
:100A60000094384C07EB040CDCF8084897074FEA71
:100A7000177809FA08F7BC43334FB84202D1002770
:100A800024E054E0314FB84201D101271EE0304F3D
:100A9000B84201D1022719E02E4FB84201D10327F5
:100AA00014E02D4FB84201D104270FE02B4FB8427C
:100AB00001D105270AE02A4FB84201D1062705E0F7
:100AC000284FB84201D1072700E0082707FA08F7A6
:100AD0002743CCF80878DAF800405746D1F804C02C
:100AE0009C435FEACC2C00D51C433C60DBF8004003
:100AF0005F46D1F804C09C435FEA8C2C00D51C43B0
:100B00003C60DEF800407746D1F804C09C435FEAC1
:100B10008C3C00D51C433C60084F083F3C68D1F832
:100B200004C09C435FEACC3C00D51C433C60521C93
:100B3000102AFFF42FAFBDE8F88F0000083C0140F9
:100B400044380240003001400000024000040240EE
:100B500000080240000C0240001002400014024055
:100B600000180240001C02400AB18161704709046C
:100B7000FBE7000001488068704700000800002083
:100B800002488168027811448160704708000020A3
:100B90000B4810B5016841F400710160016841F42F
:100BA00080610160016841F480710160032000F000
:100BB00061F80F2000F006F800F024F8002010BDC6
:100BC000003C024070B50D4D04464FF47A71287810
:100BD000B1FBF0F00A490968B1FBF0F000F0DEFA71
:100BE00048B9102C07D200222146501E00F022F8EE
:100BF00000206C6070BD012070BD00000800002066
:100C0000140000200A4808B5016841F480410160E1
:100C1000006800F4804000900548001F016841F022
:100C200080510160006800F08050009008BD000015
:100C300044380240F0B40E4B1B680C46C3F3022349
:100C4000C3F10705042D00D90425191D072901D278
:100C5000002300E0DB1E012606FA05F1491E2140B3
:100C600099409E40761E16403143F0BC00F07FBB99
:100C70000CED00E0064900F0070208684FF6FF039C
:100C8000184040EA0220034A104308607047000001
:100C90000CED00E00000FA052DE9F0470E460500D6
:100CA00065D0DFF81481D8F80000F7B200F0070033
:100CB000B04207D288F80070D8F8000000F00700B2
:100CC000B04254D128683D4C810712D5400703D566
:100CD000206840F4E05020602878000703D52068A1
:100CE00040F4604020602068A96820F0F0000843CC
:100CF00020602878C0072DD030496868083901285D
:100D000012D0022813D0032811D0096889070029BE
:100D10002DDA216821F0030101432160FFF72AFF4A
:100D2000814641F2883A0EE009688903EFE70968D5
:100D30008901ECE7FFF71EFFA0EB0901514502D93D
:100D40000320BDE8F0872068696800F00C00B0EB74
:100D5000810FEFD1D8F80010404601F00701B142F1
:100D600007D90770006800F00700B04201D00120E9
:100D7000E7E72878400705D52068E96820F4E050C7
:100D8000084320602878000706D52068296920F4E8
:100D9000604040EAC100206000F018F82168084A6D
:100DA000C1F30311515CC840064908600648006859
:100DB000FFF708FF0020C4E7003C0240083802406B
:100DC0003A300008140000200C000020154810B52F
:100DD000006810F00C02144813D01449042A0FD0F4
:100DE000082A0ED10F4C241F2268236802F03F020C
:100DF0005B0207D52068C0F38810A0FB010106E064
:100E0000084610BD2168C1F38811A1FB0001002331
:100E1000FFF72AFA2168C1F30141491C4900B0FBE0
:100E2000F1F010BD083802400024F40040787D0144
:100E30002DE9F84F04006ED02078DFF84C93C007FE
:100E4000A9F104054AD009F104000168C1F3810148
:100E5000012908D00068C0F3810002280AD1D9F81E
:100E60000000400206D52868800337D56068002856
:100E7000E1D033E06068B0F5803F10D0B0F5A02F2E
:100E8000286810D020F480302860286820F4802062
:100E900028606068A8B1FFF76DFE06460DE028687F
:100EA00040F48030F4E740F480202860F7E700BF8A
:100EB000FFF760FE801B642873D828688003F7D58D
:100EC0000CE0FFF757FE064605E000BFFFF752FEB5
:100ED000801B6428F0D828688003F7D42078DFF8D6
:100EE000AC8280074FF0000A3ED5A748001D01687C
:100EF00011F00C0F08D00068C0F3810002280BD15C
:100F0000D9F80000400207D42868800716D5E068A9
:100F1000012800D112E033E1E068B8B10120C8F83F
:100F20000000FFF727FE064605E000BFFFF722FEA0
:100F3000801B0228C0D828688007F7D52868216957
:100F400020F0F80040EAC10028600DE0C8F800A0D9
:100F5000FFF710FE064604E0FFF70CFE801B022898
:100F60001FD828688007F7D42078000722D5864F3D
:100F700087486169703771B101210160FFF7FAFD9F
:100F8000064604E0FFF7F6FD801B022809D8386802
:100F90008007F7D50EE0C0F800A0FFF7EBFD06468E
:100FA00005E082E0FFF7E6FD801B02287DD8386867
:100FB0008007F7D42078400768D5DFF8CCB1002748
:100FC0000BF13C0BDBF80000C0000BD4DBF8001089
:100FD00041F08051CBF80010DBF80000012700F051
:100FE000805000906B4E3068C00510D4306840F4DB
:100FF00080703060FFF7BEFD009005E0FFF7BAFD9E
:101000000099401A022850D83068C005F6D55E4EC7
:10101000A0686C3601280FD00528306810D020F069
:1010200001003060306820F004003060A068B8B182
:10103000FFF7A0FD00900FE0306840F00100F4E7FA
:1010400040F004003060F7E7FFF794FD0099411A83
:1010500041F28830814266D830688007F4D50EE0CE
:10106000FFF788FD009007E0FFF784FD0099411A23
:1010700041F28830814256D830688007F4D42FB1CD
:10108000DBF8001021F08051CBF80010A069C8B344
:101090003D49091D0968C1F3810102294AD002288E
:1010A000504607D0C8F8600000E03CE0FFF762FD62
:1010B00004463BE04746C8F86000FFF75BFD064684
:1010C00005E000BFFFF756FD801B02282BD82868DB
:1010D0008001F7D4D4E907010843A16A2E4A4908E0
:1010E00002EB0141626A41EA8211084394F82C1034
:1010F00040EA0161C9F8001001203866FFF73AFDA7
:10110000044606E03EE000BFFFF734FD001B022866
:1011100009D828688001F7D534E000BFFFF72AFD21
:10112000001B022802D90320BDE8F88F286880013F
:10113000F4D427E00128F7D0D9F80000E26900F4E0
:10114000800191421CD1226A00F03F01914217D1E7
:1011500047F6C071626A0140B1EB821F10D1A26AEA
:101160004FF0FF3300F4403103EB5202B1EB024F7A
:1011700006D194F82C1000F07060B0EB016F01D034
:101180000120D1E70020CFE70438024000004742A9
:10119000800E4742007000400000FFFF10B5401E67
:1011A000B0F1807F01D3012010BD4FF0E0246061D9
:1011B0000F21601700F0DBF80020A06107202061FC
:1011C000002010BDFEE700007FB500241548009404
:1011D000019402941249039401604FF480314160FC
:1011E000490204618160047680F820400E49C0E91C
:1011F0000A140125C561C46080F830404561FFF7DD
:101200005CFA08B172B6FEE7CDE9004569460548CB
:101210000295FFF7A9F9002801D072B6FEE77FBD5D
:1012200000200140180000200100000F70B586B0BA
:1012300014216846FFF78FF812480024016841F036
:1012400001010160016801F001010591016841F0AF
:101250000801016000680C4E00F008004FF4805552
:101260000590224629463046FFF77EFC0120009576
:10127000CDE90104694630460394FFF77DFB06B0D3
:1012800070BD000030380240000C0240FEE7FEE76F
:1012900070477047FFF774BC30B593B03021684693
:1012A000FFF759F814210CA8FFF755F81D48002541
:1012B000016841F080510160006800F08050119099
:1012C0001948016841F4804101600068022400F47B
:1012D0008040119001200390102004900094069407
:1012E0000820CDE90750A820CDE9090404200B907F
:1012F0006846FFF79DFD08B172B6FEE70CA90F2006
:1013000081E831004FF4A0500F904FF480501090BE
:1013100005210CA8FFF7C0FC002801D072B6FEE73B
:1013200013B030BD403802400070004002480168F0
:1013300041F470010160704788ED00E0FEE703B4FE
:1013400001984100009850EAC12018BF04204A0DBE
:1013500018BF40F0010040F2FF72B2EB515F08BFCE
:1013600040F00200012808BF052002B070470907BD
:10137000090E002804DB00F1E02080F8001470471B
:1013800000F00F0000F1E02080F8141D704700000D
:101390002DE9F04D2DED040B2DED0E8B96B0DDE912
:1013A0002550279CDDF890A025F0004624F0004849
:1013B000BAF1000F14BF0121002101EB4502FC49E5
:1013C00053184A1093422AD3002814BF0123002344
:1013D00003EB44030B44F7498B4220D358EA000146
:1013E0009FEDF59B76D0DFF8D8B35D4503D1BAF118
:1013F000000F05D188E0BAF1000F08BF002100D02E
:10140000012101EB450111F5001F08D8002814BF88
:101410000121002101EB440111F5001F0BD99DEDC5
:10142000261B9DED240B16B0BDEC0E8B04B0BDE861
:10143000F04D00F069BE0027002DBCBFE149884592
:1014400021DAE1498845A8BF02271CDAC3451ADC26
:10145000DE4901EB2851142908DDC1F1340220FADC
:1014600002F101FA02F282420DD108E058B9C1F14D
:10147000140228FA02F101FA02F2424503D101F006
:101480000101C1F1020756EA0A0124D1002C22DA37
:10149000002D18BF022F01D0012F0AD00220FEF725
:1014A00089FF16B0BDEC0E8B04B0BDE8F04D00F026
:1014B00013BE0220FEF77EFF00F00EFE51EC100B73
:1014C00000F019FF41EC100B16B0BDEC0E8B04B010
:1014D000BDE8F08D18E09FEDBEAB9FEDBF8B0028FF
:1014E00071D1B848804522D105F1804010F58010B7
:1014F00008BFBAF1000F07D0B3450ADC002CA8BF23
:101500009DED260BE0DA0DE0B0EE490AF0EE690A37
:10151000DAE7002C06DA9DED260B51EC100B00F0FB
:10152000EAFE6FE0AE48784490ED000BCCE7D8457A
:101530004DD1002C48DA2EB186423AD1BAF1000FD3
:1015400042D126E0BAF1000F13D00220FEF732FF9D
:1015500000F0F6FD8DED020B9DED240B8DED000BE3
:1015600010EE900A039961F31E0003909DED020BAB
:10157000AAE78DED02AB9DED240B1AEE901A10EE4A
:10158000900A8DED000B61F31E0003909DED020BA0
:101590009AE78DED028B9DED240B18EE901A10EE5C
:1015A000900A8DED000B61F31E0003909DED020B80
:1015B0008AE709DA9DED240B51EC190B53EC102B43
:1015C00000F094FF1EE020E09DED240B7CE78642B6
:1015D0001BDAB4F1804F0DD0A4F10050B0F1FF50F0
:1015E00013D1002D11DB9DED240B51EC100B00F0FD
:1015F0004BFE07E09DED240B53EC102B51EC100B30
:1016000000F0C2BC41EC100B5EE79DED240B51ECE9
:10161000100B00F0B5FDBAF1000FCDE90E0142D17B
:101620009FED710B46B3A6F1E040B0F17F600CD0A6
:101630005E4538D1002D00DAA7B3022F0CBF012080
:101640004FF0FF3001F0AAF8DCE7002D01DD002C9F
:101650000DDA002D01DD002C1FDB002D16DA002C29
:1016600014DB012F08BF9FED620B3FF42DAFB0EEEE
:101670004A0AF0EE6A0A27E7022F18BF002D0CD0A5
:10168000012F0AD1002DFFF61FAF06E0002DB8BFD5
:10169000002C08DA012F3FF417AFB0EE480AF0EE45
:1016A000680A11E71BE0012000EBE57050EA070132
:1016B00015D0791EB0EE498AF0EE698A084308BF5A
:1016C0009FED4D8B4E480025804570DD4D494E48BD
:1016D000884514DDB0420DDB002C19DB2FE0012022
:1016E000FEF768FE16B0BDEC0E8B04B0BDE8F04D01
:1016F00000F016BDB34502DC002C09DC1FE0864279
:1017000002DA002C1BDA03E05E452BDD002C16DD2F
:101710000220FEF74FFE00F013FD8DED020B53EC9F
:101720001A2B51EC180B01F09FF8CDE90001039939
:10173000019861F31E0003909DED020BC4E60220A8
:10174000FEF738FE00F00CFD10EE901A18EE900A2D
:101750008DED020B8DED008B61F31E0003909DED6E
:10176000020BB1E69DED0E0B53EC192B51EC100B57
:1017700001F086FA9FED260BCDE9080153EC102B02
:101780009DED080B51EC100B01F06EF89FED221B44
:1017900053EC112B01F09CF99DED081B53EC112B20
:1017A00001F062F89FED1E1B53EC112B3CE08CE026
:1017B000FFFF1F00FFFF0F00000000000000F03FD0
:1017C0000000F03F0000F07F0000404301FCFFFFFD
:1017D000000000000000F07F00000000000000009A
:1017E000AE1B0000000000000000000000000080B0
:1017F000000000000000F0FF000000000000F0BF4B
:101800000000E0410000F043FFFFEF3F0000000058
:10181000000000000000D03F555555555555D53FA7
:10182000000000000000E03F01F052F99DED080BC0
:1018300041EC1A0B53EC102B51EC100B01F014F887
:1018400053EC1A2B01F010F841EC1A0B9FEDFE0B34
:1018500053EC102B9DED080B51EC100B01F004F82C
:1018600041EC1B0B9FEDFA0B51EC1A0B53EC102BB8
:1018700000F0FAFF41EC1A0B9FEDF70B53EC102B25
:101880009DED080B51EC100B00F0EEFF53EC1A2B02
:1018900001F0F6F941EC1A0B51EC1B0B53EC1A2B2F
:1018A00000F068FD0690CDE906519DED060B53EC66
:1018B0001B2B51EC100B01F0E3F953EC1A2B01F048
:1018C00007F941EC100B00F0A1B90020B6F5801F1C
:1018D0000EDA9FEDE30B53EC102B9DED0E0B51EC4C
:1018E000100B00F0C1FFCDE90E016FF034000E4681
:1018F00000EB2650A0F2FF37C6F31300DA4940F0A0
:101900007F6646F040568842D8BF002408DDD7499C
:101910008142C8BF012403DC0024A6F580167F1C89
:10192000D348784400EBC4000F9690ED00CB9DEDBA
:101930000E0B53EC1C2B51EC100B01F0A1F99DED9B
:101940000E0B41EC1B0B53EC1C2B51EC100B00F05D
:1019500011FD41EC100B51EC190B53EC102B00F066
:10196000C5FD41EC1D0B51EC1B0B53EC1D2B00F086
:101970007BFF41EC1A0BBF488DED10AB78441095FE
:1019800090ED000B4FF0005040EA660000EB844001
:101990008DED080B00F5002009909DED080B53EC30
:1019A0001C2B51EC100B01F06BF99DED0E1B53EC51
:1019B000112B01F08DF841EC100B53EC102B9DED29
:1019C000100B51EC100B00F04FFF9DED080B41EC9C
:1019D0001C0B53EC102B9DED100B51EC100B00F079
:1019E00043FF53EC1B2B01F073F853EC1C2B01F05D
:1019F00047F953EC1D2B00F037FF41EC1C0B53EC67
:101A00001A2B51EC1A0B00F02FFF41EC1B0B9A48DC
:101A10000621B0EE4B0AF0EE6B0A784400F0E0FAD3
:101A2000B0EE401AF0EE601AB0EE41DAF0EE61DA94
:101A300053EC1B2B51EC1B0B00F016FF53EC1D2B32
:101A400000F012FF9DED100B41EC1B0B53EC1A2B19
:101A500051EC100B00F08EFC53EC1C2B00F004FF3B
:101A600053EC1B2B00F086FC9DED100B41EC1B0B87
:101A700053EC102B51EC100B00F0F6FE41EC1D0B5B
:101A80009FED7FEB53EC1E2B00F074FC53EC1B2BF3
:101A900000F070FC0890CDE908519DED080B53EC67
:101AA0001E2B51EC100B01F0EBF853EC1D2B01F049
:101AB000E7F853EC1B2B01F00BF89DED080B41EC04
:101AC0001D0B53EC102B9DED100B51EC100B00F087
:101AD000CBFE41EC1B0B53EC1A2B51EC1D0B00F011
:101AE000C3FE9DED080B41EC1A0B53EC102B51EC8F
:101AF0001C0B00F0B9FE53EC1A2B00F03BFC41EC40
:101B00001A0B51EC1B0B53EC1A2B00F033FC0C900E
:101B1000CDE90C519DED0C0B53EC1B2B51EC100B34
:101B200001F0AEF853EC1A2B00F0D2FF41EC1B0B86
:101B30009FED550B53EC102B9DED0C0B51EC100B46
:101B400000F092FE41EC1A0B9FED510B51EC1B0B78
:101B500053EC102B00F088FE41EC1B0B9FED4E0B5D
:101B600053EC102B9DED0C0B51EC100B00F07CFE98
:101B700053EC1B2B00F0FEFB41EC100B4848784463
:101B800000EBC40090ED001B51EC100B53EC112B3B
:101B900000F0F0FB41EC1B0B384600F0FFFDCDE9F7
:101BA000080153EC1B2B51EC1A0B00F0E3FB41EC4A
:101BB000100B3C48784400EBC40090ED00CB51EC96
:101BC000100B53EC1C2B00F0D5FB9DED081B53ECC8
:101BD000112B00F0CFFB0690CDE906519DED080BCF
:101BE00053EC102B9DED060B51EC100B01F048F857
:101BF00053EC1C2B01F044F853EC1A2B01F040F885
:101C000053EC1B2B00F064FF41EC100B9DED261BE9
:101C100053EC102B8DED001B00959DED260B51EC28
:101C2000100B00F021FE9DED000B41EC1A0B53EC64
:101C3000102B9DED260B51EC100B01F021F89DEDC2
:101C4000061B53EC112B2FE0000000604715F73FF7
:101C5000FE822B654715F73F44DF5DF80BAE543E1F
:101C600000000000000040438E9803007AB60B008D
:101C70002A1700005817000062160000000000003C
:101C80000000000000000840000000E009C7EE3F2F
:101C9000FD033ADC09C7EE3FF5015B14E02F3EBEC1
:101CA000EE140000A814000000F0DEFD53EC1A2B27
:101CB00000F060FB9DED060B41EC1A0B53EC102B72
:101CC0009DED000B51EC100B00F0CEFDCDE90C01A9
:101CD0009DED0C0B51EC1A0B53EC102B00F04AFB52
:101CE000CDE902010C46AA498C422FDB611A084358
:101CF00018D19DED0C0B53EC102B9DED020B51EC0C
:101D0000100B00F0BDFF41EC1B0B9FEDA30B51EC42
:101D10001A0B53EC102B00F02DFB53EC1B2B00F097
:101D2000A1FE2DD20220FEF745FB00F009FA10EECD
:101D3000901A18EE900A8DED020B8DED008B61F379
:101D40001E0003909DED020BFFF7BEBB944A24F0EA
:101D50000041914214D39349214408437FF4EFACEE
:101D60009DED0C0B53EC102B9DED020B51EC100B69
:101D700000F086FF53EC1A2B00F074FE7FF6DFAC08
:101D800024F000408849894A002601EB2051824214
:101D90002BDA481C4FF4801121FA00F02044844AC9
:101DA000C0F30A517A44A1F2FF3192ED000B814A4F
:101DB0008DED080BCA4020EA0202C0F3130040F484
:101DC0008010C1F1140120FA01F60992002CB8BF6D
:101DD00076429DED080B53EC102B9DED0C0B51EC56
:101DE000100B00F04DFFCDE90C019DED0C0B51ECFB
:101DF0001A0B53EC102B00F0BDFA9FED6F0B0890FF
:101E0000CDE9085153EC102B9DED080B51EC100B54
:101E100000F02AFD41EC1B0B9FED690B53EC102BDE
:101E20009DED080B51EC100B00F01EFD9DED0C0B11
:101E300041EC1C0B53EC102B9DED080B51EC100BDF
:101E400000F01EFF53EC1A2B00F042FE9FED5E1BCC
:101E500053EC112B00F008FD53EC1C2B00F08AFA18
:101E600041EC1A0B51EC1B0B53EC1A2B00F082FACD
:101E7000CDE902019DED020B53EC1B2B51EC100B35
:101E800000F0FEFE53EC1A2B00F022FE9DED020B3B
:101E900041EC1A0B53EC102B51EC100B00F0E4FC4E
:101EA000CDE908014A489DED080B0521784400F072
:101EB00097F89DED081B51EC100B53EC112B00F023
:101EC000D3FC9DED021B53EC112B00F001FECDE97C
:101ED00006019DED020B53EC1A2B51EC100B00F098
:101EE000C3FC53EC1A2B00F045FA9FED3B0B41EC81
:101EF0001A0B53EC102B9DED060B51EC100B00F060
:101F0000BFFE9DED060B41EC1B0B53EC102B9DED22
:101F1000020B51EC100B00F0A7FC53EC1B2B00F054
:101F2000E5FA53EC1A2B00F0ABFE9DED021B53ECCF
:101F3000112B00F0A5FE53EC192B00F0C9FDCDE9E3
:101F4000020101EB065001150029C8BF039015DC02
:101F50009DED020B324651EC100B01F028F8FFF713
:101F6000EEF9042808BF00F0FBF832469DED020BA5
:101F700051EC100B01F01BF8CDE902019DED020BB5
:101F800051EC180B53EC102B00F06EFCFFF73ABB32
:101F90000000904000000000FE822B654715973C32
:101FA00000CC904000346F3F01FCFFFF0000E03F99
:101FB00030130000FFFF0F0000000000432EE63F3B
:101FC000396CA80C615C20BEEF39FAFE422EE63F68
:101FD00000120000000000000000000000000040AF
:101FE00070B504462DED028B4D1E00EBC500B0EE22
:101FF000408AF0EE608A90ED000B35F0060017D0B5
:1020000053EC182B51EC100B00F02EFC41EC100B94
:102010006D1E04EBC50090ED001B51EC100B53EC52
:10202000112B00F0A7F941EC100B35F00600E7D1B9
:10203000022D36D0042D1CD0062D1CBFBDEC028B0A
:1020400070BD53EC182B51EC100B00F00DFC94ED0F
:102050000A1B53EC112B00F08DF953EC182B00F0F8
:1020600003FC94ED081B53EC112B00F083F941ECB9
:10207000100B53EC182B51EC100B00F0F5FB94ED0A
:10208000061B53EC112B00F075F953EC182B00F0E4
:10209000EBFB94ED040B53EC102B00F06BF941ECCF
:1020A000100B53EC182B51EC100B00F0DDFB94EDF2
:1020B000021B53EC112B00F05DF953EC182B00F0D0
:1020C000D3FB94ED001B53EC112B00F053F9BDEC46
:1020D000028B41EC100B70BD9FED070B10B553EC5C
:1020E000102B9FED070B51EC100B00F0FFF941ECAA
:1020F000100B10BD000000000000000000000000F8
:10210000000000000000F03F10B553EC112B51EC23
:10211000100B00F02FF941EC100B10BD0000000077
:102120009FED050B10B553EC102B51EC100B00F08C
:10213000DDF941EC100B10BD0000000000000000B4
:102140009FED050B10B553EC102B51EC100B00F06C
:102150008BFB41EC100B10BD000000000000007074
:102160009FED050B10B553EC102B51EC100B00F04C
:102170007BFB41EC100B10BD0000000000000010C4
:1021800082B0CDE9000121F0004001909DED000BEF
:1021900002B051EC100B70472DED0E8BFEF7F8FCE2
:1021A000FFF77AF8FFF742F8FFF70EF89FED28CB1C
:1021B0009FED29DB9FED2A9B9FED2BAB2C4C9FEDD8
:1021C0002DEB9FED2EBB4FF4FA752E48FEF726FB44
:1021D00064212C48FEF7CCFAB0EE4C1AF0EE6C1AE3
:1021E000B0EE4D0AF0EE6D0AFFF7D2F853EC192B62
:1021F00051EC100B00F044FD41EC180B2148FEF7A8
:1022000059FA00F0E2FA53EC1A2B00F02DFB53ECD4
:10221000182B00F06BF900F07BF8206000F01AFE3C
:1022200041EC100BB0EE4E1AF0EE6E1AFFF7B0F85C
:1022300053EC1B2B51EC100B00F016FB00F068F870
:1022400060601048FEF768FB2846FEF783FBBCE79A
:1022500000000000000020400000000000000040DE
:10226000000000000000F03F0000000000001440EB
:102270000000002021B0726891EDF0BF295C8FC290
:10228000F52828401800002000B52DED048B83B000
:1022900041EC190B00F028FC41EC180B18EE100A69
:1022A00018EE901A8DED008B002818BF012008430E
:1022B00020F00040C0F17F6000F1E040C00F14D07A
:1022C00019EE101A19EE900A8DED009B002918BF27
:1022D0000121084320F00040C0F17F6000F1E040A0
:1022E000C00F04BF0120FEF765F851EC180B03B0D6
:1022F000BDEC048B00BD81F00041704780F00040D0
:10230000704721F00041704720F000407047000006
:1023100021F00042A2F16052B2F5801F01F00043AB
:1023200028BFD2F17F6C0BD95FEA001C43EAC202DE
:1023300042EB507018BF704728BF20F00100704773
:10234000B2F5801FBCBF184670474FEA410C1CF520
:10235000001F02D2084600F0F3BD70B500F02EFB5E
:1023600000000089FFF7F6BF4FF00040A0F58000A5
:102370007047000010B591EA030F48BF83F0004397
:1023800000F18684841A71EB030C05D2121943EB19
:102390000C03001B61EB0C01DFF824E14FEA115440
:1023A000A4EB135C1EEA430F18BF9EEA445F73D090
:1023B00023EA0E03DCF1200E21EA045143F48013DA
:1023C00032D322FA0CFE10EB0E0023FA0CFE41EB86
:1023D0000E01CCF1200E03FA0EFE10EB0E0051F1AF
:1023E0000001B1F5801FCCF1200E32D201EB045177
:1023F00012FA0EF2BDE8104058BF7047401C38BFBB
:102400005FEA420218BF7047002814BF20F00100A5
:1024100041F100014FEA410313F5001F38BF704737
:10242000A1F1C04100F018BB012A43EB0302ACF15B
:10243000200CDCF11F0E32BF4FF0000E23FA0CF31C
:1024400010EB030041EB0451B4EB115FD0D0A1EBD2
:10245000045101F5801149085FEA300001EB045195
:102460000ED350F1000038BF12FA0EFE08D1BDE8BD
:102470001040C9E7401C38BF5FEA4202CAD1C3E737
:10248000BDE810404FEA410313F5001F38BF704705
:10249000A1F1C04100F0E0BA9EEA445F08D011EA21
:1024A0005E0FBDE8104004BF01F0004100207047FE
:1024B000BDE8104070B500F081FA00BF64FBBE3E7D
:1024C0000000E0FF02494FF0000000F03EBD00BFF9
:1024D0000000F87F491058BFC1F140415B1058BF60
:1024E000C3F140438B42EFF3008070472DE9C041B8
:1024F00030B4DFF8A0C23CEA111418BF3CEA131450
:1025000000F0EC8081EA03051CEA111444EAD5745A
:1025100018BF1CEA131500F0C780A4EB05044FF0A8
:10252000004545EAC12145EAC32341EA505143EA47
:10253000525304F17F74994204F500344FEAC020ED
:102540004FEAC22208BF904200F09C804FEA136518
:102550000FF24016765D4FEA134506FB05F7C7F10B
:10256000807706FB07F74FEAD737A7FB0368764269
:10257000C8F58038A7FB06CE38BFA8F1010807FBD5
:1025800008E64FF0000EA6FB028CE6FB03CEDCF162
:10259000000CCEF1004E38BFAEF1010EA6FB0C5878
:1025A0004FF000074FF00005E6FB0E87A1FB08C6C1
:1025B000A0FB07CE16EB0E0645F10005E1FB076513
:1025C00015F1E04E7EBFA4F580345FEA46066D410A
:1025D00016F1800745F100054FEA17274FEA066616
:1025E00047EA0567A6F1DE46B6F1805F4FEA15259A
:1025F0001FD9384624F0010C05EBC471BCF1FE6F05
:1026000001EB0C1102D8F0BCBDE8008124425CBF94
:1026100001F5801E9EEAC47F02D4F0BCBDE80081B3
:10262000244238D4F0BCA1F1C041BDE8004100F023
:1026300013BA4FEAD22242EA43524FEAD323A7FB0E
:1026400002864FEAD02040EA415007FB03661EEAAB
:102650000E0F4FEAD12105FB026658BFA6EB0056CC
:10266000B6EB00564FEA520E4EEAC37E18EB0E0E42
:1026700056EB530EBDD518EB02085E417F1C55F199
:102680000005B6E74FF480154FF000074FF0000645
:102690004FF00008ADE7F0BC4FF0000001F1C04181
:1026A00001F00041BDE8008111EA0C1F0CEA13158E
:1026B00000D00CE013EA0C1F00F025804FF0000062
:1026C000F0BC81EA030101F00041BDE80081F0BCEB
:1026D000BDE8004181EA030100F0BEB9F0BCBDE8ED
:1026E000004170B500F06AF9097EFC3E00F007B8C1
:1026F00081EA03014FF0000001F00041704781EAD8
:10270000030100F0A9B9F0BCBDE800414FF00000A2
:1027100021497047FFFDFBF9F7F5F4F2F0EEEDEB20
:10272000E9E8E6E4E3E1E0DEDDDBDAD8D7D5D4D3CF
:10273000D1D0CFCDCCCBCAC8C7C6C5C4C2C1C0BF1B
:10274000BEBDBCBBBAB9B8B7B6B5B4B3B2B1B0AF21
:10275000AEADACABAAA9A8A8A7A6A5A4A3A3A2A105
:10276000A09F9F9E9D9C9C9B9A99999897979695C0
:1027700095949393929191908F8F8E8E8D8C8C8B5C
:102780008B8A8989888887878685858484838382E4
:10279000828181800000FF070000F87F10F0004276
:1027A00048BF4042B0FA80F310FA03F10AD0C3F1F7
:1027B0001D0303F580634FEA415002EB035202EB25
:1027C000D12170474FF000007047B0FA80F310FA43
:1027D00003F10AD0C3F11D0303F580634FEA4150B2
:1027E0004FEA035202EBD12170474FF000007047CF
:1027F00051EA030C17D41CF5801F58BFBCF5801F8D
:1028000000F10680994218BF704708BF9042704798
:1028100007D711F5801F58BF13F5801F19D49942AF
:102820007047894270471CF5801F08D5BCF5801F92
:10283000F7D58B4218BF704708BF824270474FF4EC
:10284000001C1CEB410F38BF1CEB430F01D28B4225
:10285000704770B500F0B2F8922449004FF0005173
:102860004FF08053FFF736BEDFF848C170B51CEA61
:10287000111E1EBF1CEA13159EEA0C0F95EA0C0FE1
:1028800000F06F8081EA030423EA4C134EEAD47E01
:1028900021EA4C1141F4801143F48013AE44A1FBB2
:1028A000024CA0FB0365AEF17F7E361955EB0C059B
:1028B000A1FB034C4CF10003A0FB021C16EB0C0621
:1028C000654153F10003094218BF46F0010613F4B5
:1028D000007F0BD14FEA03314FEA0530340341EA60
:1028E000155140EA16506FF003020AE04FEAC32187
:1028F0004FEAC520F40241EA555140EA56506FF0C4
:10290000020202EB2E4201EB025585EACE710AD09B
:102910005FEA440C18BF24F0004450F1000041F17C
:10292000000120EAD47040F2FE7C624500D270BD06
:10293000A84214BF4FF080444FF04044002E08BF1F
:102940000024BEF1806FA8BFA1F1C041BDE8704076
:1029500080F282804FF0000001F1C04101F000419F
:1029600070479EEA0C0F0CEA131518BF95EA0C0F7E
:1029700006D04FF0000081EA030E0EF0004170BD5A
:1029800000F01CF88900013E00F007B800F009B81B
:102990004FEA430C5FEA5C5C08D081EA030100F077
:1029A0005BB84FEA410C5FEA5C5CF6D14FF0000087
:1029B000014970470000FF070000F87F0EF1020E8A
:1029C0002EF0030E5EF8046B364205D4012A43EB69
:1029D000030515F5001F12D8012841EB010C1CF569
:1029E000001F0CD80ED14FEAD17C15F5001F0CEB5F
:1029F0004C0C0CF1020C08BF4CEBD37C04E04FF004
:102A0000080C01E04FEAD37C0CEB4C0526FA05F6E6
:102A100006F00706B6F1040C06D20EEB860CBDE8F4
:102A200070404CF0010C6047DFE80CF0090B02022B
:102A30004FF000414FF00000A1F5002170BD194694
:102A40001046012851EB010418BFD4F5001484BFCF
:102A5000002001F0004170BD0808A0F500114FEA08
:102A60003101704753EA010C17D41CF5801F58BF81
:102A7000BCF5801F00F106808B4218BF704708BF6D
:102A80008242704707D713F5801F58BF11F5801F8A
:102A900019D48B4270479B4270471CF5801F08D5A4
:102AA000BCF5801FF7D5994218BF704708BF904208
:102AB00070474FF4001C1CEB430F38BF1CEB410F59
:102AC00001D2994270470FB40CBC03BCFFF7C1BEE2
:102AD00091EA030F10B581F000413FF553AC83F04C
:102AE000004300F0D5B800002DE9F04101F5801C4D
:102AF000BCF5001FC0F2A9804FEA115C21EA0C511D
:102B00000CF1FD0C41F480115FEA5C0C0CF5C07C0B
:102B100001D34000494130A4890241EA9051870223
:102B20008E0E0A0CA45D04FB04F602FB06F6C6F149
:102B30004046A4FB0662F60D46EA422606FB06F472
:102B4000A4FB01235242C3F1404338BF5B1EA6FBE6
:102B500002420024E6FB0324D20B42EA4446A6FBD1
:102B60000623A1FB02E2A3FB07E4E3FB614264420C
:102B7000C2F1404E38BFAEF1010EA6FB04234FF068
:102B80000002E6FB0E32A2FB03463400E2FB626465
:102B9000A1FB06E6A4FB07E8E4FB61687642C8F106
:102BA000405838BFA8F10108A2FB06E4A3FB08E5E2
:102BB000E2FB6854A1FB05E6A7FB04E8E1FB6486A1
:102BC00018F1200556F10006A809A8F11B08B10963
:102BD00008F03F08B8F10A0F40EA86601CD901EB03
:102BE0000C51BDE8F08100BFFCF5EEE8E2DDD8D382
:102BF000CFCBC7C3C0BDB9B6B4B1AEACA9A7A5A36E
:102C0000A19F9D9B9A9896959392908F8D8C8B897E
:102C10008887868584838281A0FB006800FB01F29F
:102C200008EB4208B8EB872807D5341858EB0104A5
:102C3000D5D5401C51F10001D1E7341A78EB0104DD
:102C4000CDD4401E71F10001C9E75FEA4C0C5FEA88
:102C50009C5C0DD105D34FF0000001F00041BDE8B0
:102C6000F081BDE8F04170B5FFF7A8FE6DDBFFBE57
:102C7000BDE8F0414FF00000004970470000F87FC8
:102C800010B591EA030F48BF83F000433FF57AABDC
:102C9000841A71EB030C07D212198CF0004C43EB31
:102CA0000C03001B61EB0C01DFF8A4E14FEA1154A7
:102CB000A4EB135C1EEA430F18BF9EEA445F00F0CA
:102CC000B08023EA6E03524221EA0451C3EB6E0343
:102CD00038BF5B1EDCF1200E25D322FA0CFE10EB70
:102CE0000E0043FA0CFE41EB0E01CCF1200E03FA6C
:102CF0000EFE10EB0E0051F10001CCF1200E29D494
:102D000012FA0EF201EB0451BDE8104058BF7047B3
:102D1000401C1CBFB2F1004F704700280CBF491C7B
:102D200020F00100704712EB020E43EB030218BFC4
:102D30004FF0010E4EEA4202ACF1200CDCF11E0E07
:102D400054D943FA0CFE10EB0E0051F1FF31CCF1D7
:102D50001E0ED5D50EF1010E12FA0EFE404141EBCA
:102D6000010101EB445C5FEA5C5C10D910EBDE70A2
:102D700001EB045138BFBEF1004FBDE8104018BF51
:102D8000704700280CBF491C20F00100704730D26A
:102D90004FEAD42C11F5001124F400641BD0B1FAD1
:102DA00081F20B3AA41AA41ED2F12003914030FA0A
:102DB00003F31943904001EBCC71002C01EB04515B
:102DC000BDE81040A8BF704701F1C0414FF00000BE
:102DD00001F000417047B0FA80F310FA03F100D11E
:102DE00010BDE41A173C4805C90AE4E701EB045199
:102DF00010BD491001EB0451BDE810404FEA30000E
:102E000002E04FF0000170474A0008BF0042F8D0CE
:102E1000B2F5001F28BF704701F000414FF00000DD
:102E200070479EEA445F07D011EA5E0FBDE810408C
:102E300004BF002100207047BDE8104070B5FFF7C7
:102E4000BDFD00BF40DFF63E83F0004110467047F5
:102E50000000E0FF43004FEAD30C4FEA3C0C434034
:102E60001FBF40070CF1605113F0FE4F70471CF07C
:102E7000006F03D100200CF0004170470CF00043BC
:102E800043EA507010B540EACC0000F00EF800BFE5
:102E9000000000924FEA0001FFF7DEBD4FF0004155
:102EA0004FF00000A1F5002170470EF1020E2EF048
:102EB000030E5EF8044B244204D44FEA4102B2F1FF
:102EC0007F4F11D84FEA4003B3F17F4F0CD80ED19A
:102ED0004FEAD07CB2F17F4F0CEB4C0C0CF1020CA2
:102EE00008BF4CEBD17C04E04FF0080C01E04FEA46
:102EF000D17C0CEB4C0324FA03F404F00704B4F186
:102F0000040C06D20EEB840CBDE810404CF0010C12
:102F10006047DFE80CF0070802024FF00040A0F520
:102F2000800010BD0846420018BFD2F1807288BFF1
:102F300000F0004010BD4FF04070E1EE100A704705
:102F4000FF2141EAD050C00570470CF00F03092B58
:102F500008BF082000F059800A2B0BD0082B18BF9F
:102F6000704708BF1CF0400F0AD04FF000004FF030
:102F7000000170471CF0400F18BF4FF00040704731
:102F80001CF0100F08D020F0704300F07F4242EA9E
:102F9000D3014FEA4370704700F0604021F07F4258
:102FA00042EA000201F07F4040EA727070474FF041
:102FB000FF0C4CF4E06C1CEA11531CBF9CEA030CA0
:102FC0009445C2BFDA4201EB02517047002B0DD08D
:102FD000BCF1000F0FD0002A01F00041A4BF41F066
:102FE000E04141F07F614FF00000704701F0004187
:102FF0004FF00000704750EA01334FF09B0C18BFB0
:103000004CF0806C7FF45EAA70471CF4801F11D0D6
:103010001CF4E02F03D06FEACC31490070474FF029
:103020004050EFF3008222F0704242EA000282F345
:10303000008870474FF0000070470000000000005B
:103040000000010203040607080900000000000058
:10305000000000000000F03F000000000000F83F0A
:1030600000000000000000000000004003B8E23F44
:10307000000000000000000006D0CF43EBFD4C3EF6
:10308000033333333333E33FFFAB6FDBB66DDB3FEB
:103090004D268F515555D53F01411DA96074D13F33
:1030A00065DBC9934A86CD3FEF4E454A287ECA3F2D
:1030B0003E5555555555C53F93BDBE166CC166BFAF
:1030C0002CDE25AF6A56113FF16BD2C541BDBBBEA8
:1030D000D0A4BE726937663E000000000000000008
:1030E000003100080000002018000000C4010008A2
:1030F0001831000818000020A8060000E0010008B0
:1031000000000000000000000100000010000000AE
:08311000000000000024F4009F
:040000050800018965
:00000001FF
